:020000040800F2
:1000000078080020E90500084506000845060008B4
:1000100045060008450600084506000800000000E7
:10002000000000000000000000000000450600087D
:10003000450600080000000045060008710E000893
:100040004506000845060008450600084506000864
:100050004506000845060008450600084506000854
:100060004506000845060008450600084506000844
:100070004506000845060008450600084506000834
:100080004506000845060008450600084506000824
:100090004506000845060008450600084506000814
:1000A0004506000845060008450600084506000804
:1000B00045060008450600084506000845060008F4
:1000C00045060008450600084506000845060008E4
:1000D00045060008450600084506000845060008D4
:1000E00045060008450600084506000845060008C4
:1000F00045060008450600084506000845060008B4
:1001000045060008450600084506000845060008A3
:100110004506000845060008450600084506000893
:100120004506000845060008450600084506000883
:100130004506000845060008450600084506000873
:100140004506000845060008450600084506000863
:100150004506000845060008450600084506000853
:100160004506000845060008450600084506000843
:100170004506000845060008450600084506000833
:10018000450600084506000880B485B000AF7860D9
:100190000F4B1A687B6802FB03F3FB600D4B1B6877
:1001A0000D4A934204D00B4B1B680C4A934204D176
:1001B000074B1B68FA68D31AFB6000BFFB685A1E26
:1001C000FA60002BFAD100BF1437BD4680BC7047DF
:1001D00074000020000000200095BA0A00E1F50537
:1001E00080B582B000AF03460A46FB711346BB716F
:1001F00000F0B6FE00F098F94AF6C870FFF7C4FFA9
:100200002A4ABB79D370294AFB791371274B002204
:100210005A71264B00229A71244B00225A70BB79E6
:10022000012B06D9214B5B7843F00803DAB21F4B50
:100230005A70032000F0F2F841F29410FFF7A4FF87
:10024000032000F0EBF841F29410FFF79DFF03202C
:1002500000F0E4F841F29410FFF796FF022000F05E
:10026000DDF86420FFF790FF104B5B7843F020032C
:10027000DBB2184600F09AF80C4B04221A7000F01A
:100280007FF800F015F8094B02229A70074B9B7813
:1002900043F00403DBB2184600F088F841F29410F2
:1002A000FFF772FF00BF0837BD4680BD1400002075
:1002B00080B500AF012000F079F840F6B830FFF7C4
:1002C00063FF00BF80BD00BF80B582B000AF0346B2
:1002D0003A60FB710B46BB71BA79FB79114618463F
:1002E00000F0EEF842E0254B5A79244B1B799A42F4
:1002F00010D3224B00225A71204B9B790133DAB282
:100300001E4B9A711D4B5A791C4B9B79194610460E
:1003100000F0D6F83B681B780A2B0ED1174B9B795F
:100320000133DAB2154B9A71144B5A79134B9B79FE
:100330001946104600F0C4F815E03B681B780D2BF9
:1003400006D10E4B9B791946002000F0B9F80AE05F
:100350003B681B78184600F045F8084B5B79013381
:10036000DAB2064B5A713B6801333B603B681B783D
:10037000002BB8D100BF0837BD4680BD1400002057
:1003800080B500AF084B1B7843F00403DAB2064B8C
:100390001A70054B1B7843F00803DBB2184600F0D7
:1003A00005F800BF80BD00BF1400002080B582B0FA
:1003B00000AF0346FB710A4B04225A83FB791B09E9
:1003C000DBB2184600F02AF8FB7903F00F03DBB22A
:1003D000184600F023F800BF0837BD4680BD00BFB7
:1003E0000004024080B582B000AF0346FB710A4BA7
:1003F00004221A83FB791B09DBB2184600F00EF8C1
:10040000FB7903F00F03DBB2184600F007F800BFDA
:100410000837BD4680BD00BF0004024080B582B0F1
:1004200000AF0346FB71FB7903F00803002B04D0F7
:10043000214B4FF400521A8303E01F4B4FF400523C
:100440005A83FB7903F00403002B04D01A4B4FF4BA
:1004500080521A8303E0184B4FF480525A83FB7981
:1004600003F00203002B04D0144B4FF400521A8304
:1004700003E0124B4FF400525A83FB7903F001035F
:10048000002B04D00D4B4FF480521A8303E00B4B2A
:100490004FF480525A83084B80221A831420FFF7AE
:1004A00073FE054B80225A831420FFF76DFE00BFB8
:1004B0000837BD4680BD00BF00040240000802406E
:1004C00080B584B000AF03460A46FB711346BB718A
:1004D000134A07F10C0310681860124BDB78BA79E5
:1004E0009A4201D30023BB710E4AFB7953710D4A26
:1004F000BB799371BB7907F11002134413F8042CF4
:10050000FB791344DBB25BB263F07F035BB2DBB217
:100510001846FFF74BFF00BF1037BD4680BD00BF38
:10052000B41B00081400002080B582B002AF002385
:10053000019300230093002301220421284801F0A5
:100540003FF8002301930023009300230122802120
:10055000234801F035F80023019300230093002382
:1005600001224FF480511F4801F02AF80023019323
:1005700000230093002301224FF40051194801F099
:100580001FF80023019300230093002301224FF45E
:100590008051134801F014F80023019300230093C5
:1005A000002301224FF400510D4801F009F80C4BD3
:1005B00004225A830A4B80225A830A4B4FF48052FA
:1005C0005A83084B4FF400525A83054B4FF4805224
:1005D0005A83034B4FF400525A8300BFBD4680BD7F
:1005E000000402400008024080B582B000AF104B0A
:1005F0007B60104B3B6007E03B681A1D3A607A68ED
:10060000111D796012681A603B680B4A9342F3D35C
:100610000A480B494FF000028842B8BF40F8042B4B
:10062000FADB00F0CFF800BF0837BD4680BD00BF41
:100630001F1C0008000000201400002014000020EF
:100640007800002080B400AFFEE700BF80B483B024
:1006500000AF03463960FB7197F90730002B0BDAC6
:100660000D49FB7903F00F03043B3A68D2B2120143
:10067000D2B20B441A7609E0084997F907303A6874
:10068000D2B21201D2B20B4483F8002300BF0C3760
:10069000BD4680BC704700BF00ED00E000E100E017
:1006A00080B582B000AF78607B68B3F1807F01D302
:1006B000012311E00A4A7B6823F07F43013B53602A
:1006C0000F214FF0FF30FFF7C1FF054B00229A606A
:1006D000034B07221A60002318460837BD4680BD29
:1006E00010E000E080B485B000AF7860114B1B686B
:1006F000BB60EFF30583FB60FB68002B11D100BFEB
:100700000C4B1A68BB68D21A7B689A42F8D30BE08C
:10071000094B1B6803F48033002B02D07B68013B3C
:100720007B607B68002BF3D100BF1437BD4680BCD3
:10073000704700BF2000002010E000E080B58CB0C2
:1007400000AF0223BB62032387F82C30002387F815
:100750002F3007F128031946184800F029FC002320
:10076000BB610023FB6100233B6200237B6207F136
:100770001803184600F0ECF900233B6000233B719E
:1007800001237B710023FB600023BB6000233B61DE
:1007900001233B753B461946094800F085F90423BF
:1007A00001220121064800F017FA0121044800F057
:1007B000F7F900BF3037BD4680BD00BF00000240E2
:1007C0000020014080B582B000AF00F0D5FD00F000
:1007D00001FE744B1B68744AA2FB03239B09184655
:1007E000FFF75EFF0346002B00D0FEE7012101204A
:1007F00000F01EF90121022000F0FCF80121012087
:1008000000F0F8F801214FF4807000F02FF9402239
:100810006649674800F090FCFFF790FF0221102026
:10082000FFF7DEFC634A00210020FFF74DFD624A1E
:1008300001210020FFF748FD40F6B830FFF752FFD6
:10084000FFF736FD4FF47A70FFF74CFF5B4800F07E
:100850008DFA00BF0221594800F0A4FA0346002B8C
:10086000F8D0564800F092FA0346184601F0D4F842
:100870000246534B1A604E4800F09AFC78604C4B8D
:100880005A78504B1A704F4B1B784F4AA2FB0323E8
:10089000DB08DBB23033DAB24C4B1A70494B1A78B2
:1008A000494BA3FB0213D9080B469B000B445B008A
:1008B000D31ADBB23033DAB2444B5A70444A0021C7
:1008C0000020FFF701FD414A01210020FFF7FCFC59
:1008D00040F6B830FFF706FF354B1A783D4B1A70DB
:1008E0003C4B1B78384AA2FB0323DB08DBB23033D6
:1008F000DAB2364B1A70374B1A78334BA3FB02131C
:10090000D9080B469B000B445B00D31ADBB2303393
:10091000DAB22E4B5A70304A00210020FFF7D4FC87
:100920002A4A01210020FFF7CFFC40F6B830FFF73C
:10093000D9FE2A4A00210020FFF7C6FC204B1B6885
:100940002749184601F022F90346002B05D0254A15
:1009500001210020FFF7B8FC1CE0194B1B6820495F
:10096000184601F0FFF80346002B0ED0144B1B680D
:100970001D49184601F00AF90346002B05D01B4A11
:1009800001210020FFF7A0FC04E0194A012100200A
:10099000FFF79AFC40F6B830FFF7A4FEFFF788FC9B
:1009A00054E700BF00000020D34D62100004024055
:1009B0005C000020B81B0008C81B00080020014094
:1009C0007000002069000020CDCCCCCC6C00002051
:1009D000D81B000868000020E41B0008F41B000876
:1009E00000002F45041C000800002F44081C0008CC
:1009F000141C000880B483B000AF78600B46FB7015
:100A0000FB78002B06D00949084B1A6B7B6813430F
:100A10000B6306E00549054B1A6B7B68DB4313400B
:100A20000B6300BF0C37BD4680BC704700380240E6
:100A300080B483B000AF78600B46FB70FB78002B6E
:100A400006D00949084B1A6C7B6813430B6406E017
:100A50000549054B1A6C7B68DB4313400B6400BFF0
:100A60000C37BD4680BC70470038024080B483B06C
:100A700000AF78600B46FB70FB78002B06D009496D
:100A8000084B5A6C7B6813434B6406E00549054BE1
:100A90005A6C7B68DB4313404B6400BF0C37BD4688
:100AA00080BC70470038024080B485B000AF7860E9
:100AB00039600023FB600023FB727B685B68FB608E
:100AC000FB6823F0407323F48073FB603B681B7961
:100AD0001A023B681B681343FA681343FB607B6888
:100AE000FA685A607B689B68FB60FA68174B134092
:100AF000FB603B681A693B68DB681A433B689B688C
:100B00001A433B685B795B001343FA681343FB604D
:100B10007B68FA689A607B68DB6AFB60FB6823F499
:100B20007003FB603B681B7D013BDAB2FB7A134329
:100B3000FB72FB7A1B05FA681343FB607B68FA685B
:100B4000DA6200BF1437BD4680BC7047FDF7FFC0B6
:100B500080B485B000AF78600023FB600E4B5B680B
:100B6000FB60FA680D4B1340FB607B681A687B687A
:100B70005B681A437B689B681A437B68DB68134396
:100B8000FA681343FB60044AFB68536000BF1437E4
:100B9000BD4680BC704700BF00230140E030FCFF31
:100BA00080B483B000AF78600B46FB70FB78002BFD
:100BB00006D07B689B6843F001027B689A6005E081
:100BC0007B689B6823F001027B689A6000BF0C374A
:100BD000BD4680BC704700BF80B485B000AF786070
:100BE000084611461A460346FB700B46BB70134677
:100BF0007B700023FB600023BB60FB78092B23D9AB
:100C00007B68DB68FB60FB78A3F10A0213465B009C
:100C10001344072202FA03F3BB60BB68DB43FA68A4
:100C20001340FB607978FB78A3F10A0213465B005E
:100C3000134401FA03F3BB60FA68BB681343FB601B
:100C40007B68FA68DA601EE07B681B69FB60FA78F3
:100C500013465B001344072202FA03F3BB60BB6830
:100C6000DB43FA681340FB607978FA7813465B003F
:100C7000134401FA03F3BB60FA68BB681343FB60DB
:100C80007B68FA681A61BB78062B21D87B685B6B9E
:100C9000FB60BB785A1E13469B0013441F2202FAC6
:100CA00003F3BB60BB68DB43FA681340FB60F97871
:100CB000BB785A1E13469B00134401FA03F3BB6032
:100CC000FA68BB681343FB607B68FA685A6347E0C5
:100CD000BB780C2B21D87B681B6BFB60BB78DA1FC1
:100CE00013469B0013441F2202FA03F3BB60BB6848
:100CF000DB43FA681340FB60F978BB78DA1F1346D0
:100D00009B00134401FA03F3BB60FA68BB6813430A
:100D1000FB607B68FA681A6322E07B68DB6AFB6031
:100D2000BB78A3F10D0213469B0013441F2202FA65
:100D300003F3BB60BB68DB43FA681340FB60F978E0
:100D4000BB78A3F10D0213469B00134401FA03F391
:100D5000BB60FA68BB681343FB607B68FA68DA62C1
:100D600000BF1437BD4680BC704700BF80B483B05D
:100D700000AF78607B689B6843F080427B689A6034
:100D800000BF0C37BD4680BC704700BF80B483B045
:100D900000AF78607B68DB6C9BB218460C37BD46B1
:100DA00080BC704780B485B000AF78600B46FB70A4
:100DB0000023FB737B681A68FB781340002B02D07A
:100DC0000123FB7301E00023FB73FB7B1846143700
:100DD000BD4680BC704700BF80B483B000AF0346FF
:100DE0003960FB7197F90730002B0BDA0D49FB795D
:100DF00003F00F03043B3A68D2B21201D2B20B44A3
:100E00001A7609E0084997F907303A68D2B2120118
:100E1000D2B20B4483F8002300BF0C37BD4680BC20
:100E2000704700BF00ED00E000E100E080B582B057
:100E300000AF78607B68B3F1807F01D3012311E0BC
:100E40000A4A7B6823F07F43013B53600F214FF038
:100E5000FF30FFF7C1FF054B00229A60034B0722CA
:100E60001A60002318460837BD4680BD10E000E038
:100E700080B582B000AF374B1B680133354A136031
:100E8000354B1B68002B04D0334B1B68013B324AA7
:100E90001360AFF300800023FB7152E0FB792F4A0F
:100EA0009B0013445B68002B48D0FB792B4A9B00C6
:100EB00013445B681B7B002B40D0FB79274A9B00C7
:100EC00013445B689B68002B38D0FB79234A9B0056
:100ED00013445B689A68013A9A60FB791F4A9B0049
:100EE00013445B689B68002B28D1FB791B4A9B004D
:100EF00013445B681A69FB7918499B000B445B68D3
:100F00005B6918469047FB79144A9B0013445A6862
:100F1000FB7912499B000B445B681B689360FB796B
:100F20000E4A9B0013445B685B68002B06D1FB797B
:100F30000A4A9B0013445B6800221A73FB79013351
:100F4000FB71064B1B78FA799A42A7D300BF08378A
:100F5000BD4680BD20000020240000202C00002081
:100F600080B500AF0D4B1B680D4AA2FB03239B0904
:100F70001846FFF75BFF0346002B00D0FEE7074B48
:100F80001B689B09074AA2FB03239B0A064A1360BE
:100F9000064B01221A7000BF80BD00BF0000002078
:100FA000D34D6210179165027400002028000020C4
:100FB00080B487B000AF7860396000237B61002384
:100FC0003B610023FB6000237B6176E001227B69AB
:100FD00002FA03F33B613B681A683B691340FB600C
:100FE000FA683B699A4265D17B681A687B695B0045
:100FF000032101FA03F3DB431A407B681A607B6824
:101000001A683B681B7919467B695B0001FA03F398
:101010001A437B681A603B681B79012B03D03B683D
:101020001B79022B2ED17B689A687B695B000321B8
:1010300001FA03F3DB431A407B689A607B689A6885
:101040003B685B7919467B695B0001FA03F31A433D
:101050007B689A607B685A687B699BB2194601235A
:101060008B40DB431A407B685A607B685B683A6858
:10107000927911467A6992B201FA02F292B21A4357
:101080007B685A607B68DA687B699BB25B000321EE
:1010900001FA03F3DB431A407B68DA607B68DA68A5
:1010A0003B68DB7919467B695B0001FA03F31A435D
:1010B0007B68DA607B6901337B617B690F2B85D9A3
:1010C00000BF1C37BD4680BC704700BF80B485B0F0
:1010D00000AF78600B467B800023FB737B681A6946
:1010E0007B881340002B02D00123FB7301E0002317
:1010F000FB73FB7B18461437BD4680BC704700BFAE
:1011000080B483B000AF78600B467B807B687A88C0
:101110001A8300BF0C37BD4680BC704780B483B0D3
:1011200000AF78600B467B807B687A885A8300BF6B
:101130000C37BD4680BC704780B58AB000AFF86000
:10114000B9601346FB80FB68BA685A60FB68FA888E
:101150001A81164B3B625423BB830023BB840023BC
:10116000FB8307F11C0319464FF0804000F0FAFAA8
:1011700001214FF0804000F079FBFB681B897B6107
:1011800001233B760023BB7603237B760023FB768B
:10119000FB685B6807F1140211461846FFF708FF69
:1011A000002318462837BD4680BD00BFFFBC01059F
:1011B00080B586B000AF786007F1100300221A6096
:1011C0001A717B681B89BB6001233B730023BB73CF
:1011D00003237B730023FB737B685B6807F10802C2
:1011E00011461846FFF7E4FE7B685A687B681B8946
:1011F00019461046FFF792FF4FF0804300225A62D3
:1012000000BF4FF080435B6A44F250629342F8D9CA
:101210007B685A687B681B8919461046FFF770FF88
:101220004FF0804300225A6200BF4FF080435B6A58
:10123000282BFAD900233B737B685B6807F108020F
:1012400011461846FFF7B4FE4FF0804300225A6261
:1012500006E04FF080435B6A642B01D9032386E0EC
:101260007B685A687B681B8919461046FFF72EFF7A
:101270000346002BEDD04FF0804300225A6206E077
:101280004FF080435B6A642B01D903236FE07B68D6
:101290005A687B681B8919461046FFF717FF0346FB
:1012A000002BEDD10023BB754DE00023FB7544E01E
:1012B00000BF7B685A687B681B8919461046FFF798
:1012C00005FF0346002BF4D000214FF0804000F0D2
:1012D000B3FA00BF7B685A687B681B8919461046C1
:1012E000FFF7F4FE0346002BF4D14FF0804000F0EE
:1012F000B1FA03467B75BB7DBA7D07F118010A443C
:1013000012F8082C5200D2B207F118010B4403F86E
:10131000082C7B7D282B0DD9BB7DBA7D07F11801E8
:101320000A4412F8082C0132D2B207F118010B441A
:1013300003F8082CFB7D0133FB75FB7D072BB7D928
:10134000BB7D0133BB75BB7D042BAED93B7D1A46FB
:101350003B7C1946BB7C0B449A4201D0022306E039
:10136000BA7C7B681A703A7C7B685A7001231846F5
:101370001837BD4680BD00BF80B500AF124A124B82
:101380001B6843F0010313600F4B00229A600E4A62
:101390000D4B1B6823F0847323F4803313600A4BD6
:1013A0000A4A5A60084A084B1B6823F480231360DA
:1013B000054B0022DA6000F089F8054B4FF000621F
:1013C0009A6000BF80BD00BF00380240103000248A
:1013D00000ED00E080B487B000AF00233B61002344
:1013E0007B610223FB600023BB6002237B60324BE6
:1013F0009B6803F00C033B613B69042B07D0082B6F
:1014000009D0002B3FD12D4B2D4A1A603FE02B4BCA
:101410002C4A1A603BE0284B5B6803F480039B0D69
:10142000BB60254B5B6803F03F037B60BB68002B10
:101430000DD0244A7B68B2FBF3F21F4B596847F684
:10144000C0730B409B0903FB02F37B610CE01C4A59
:101450007B68B2FBF3F2184B596847F6C0730B4038
:101460009B0903FB02F37B61134B5B6803F440337E
:101470001B0C01335B00FB607A69FB68B2FBF3F382
:101480000E4A136003E00D4B0D4A1A6000BF0A4B71
:101490009B6803F0F0031B090B4AD35CDBB23B6192
:1014A000064B1A683B6922FA03F3044A136000BF33
:1014B0001C37BD4680BC7047003802400000002049
:1014C0000024F40000127A000400002080B483B0ED
:1014D00000AF00237B6000233B60354A344B1B6820
:1014E00043F480331360324B1B6803F400333B60DA
:1014F0007B6801337B603B68002B03D17B68B3F5CD
:10150000A06FF0D12A4B1B6803F40033002B02D0EC
:1015100001233B6001E000233B603B68012B42D18B
:10152000234A234B1B6C43F080531364214A214B05
:101530001B6843F4804313601D4A1D4B9B689360F6
:101540001B4A1B4B9B6843F400439360184A184B9B
:101550009B6843F4A0539360154B174A5A60144A92
:10156000134B1B6843F08073136000BF104B1B6864
:1015700003F00073002BF9D0104B40F205621A60A3
:101580000B4A0B4B9B6823F003039360084A084BFC
:101590009B6843F00203936000BF054B9B6803F018
:1015A0000C03082BF9D100BF0C37BD4680BC704737
:1015B000003802400070004008544007003C0240E0
:1015C00080B584B002AF7860084611461A460346DB
:1015D0007B800B467B7013463B707B88002B0ED0C4
:1015E000786800F021F838787A7879883B7D019323
:1015F0003B7C00930346786800F02EF800E000BFC3
:101600000837BD4680BD00BF80B483B000AF7860AE
:101610007B6803F13F4303F57E039B0A9BB21846A8
:101620000C37BD4680BC704780B582B000AF786093
:101630007868FFF7E9FF03461A46012303FA02F12F
:10164000044A044B1B6B0B43136300BF0837BD46B2
:1016500080BD00BF0038024080B584B000AF786024
:10166000084611461A4603467B800B467B7013469C
:101670003B707868FFF7C8FF0346BB730023FB731A
:1016800067E07A88FB7B42FA03F303F00103002B47
:101690005BD0BB7BBA7B324931F8122011B2FA7BA6
:1016A000012000FA02F212B20A4312B291B22C4A9D
:1016B00022F813107B68DB68FA7B5200032101FAE1
:1016C00002F2D2431340397EFA7B520001FA02F251
:1016D0001A437B68DA607B681A68FB7B5B00032136
:1016E00001FA03F3DB4313407978FA7B520001FAE5
:1016F00002F21A437B681A607B78012B02D07B7858
:10170000022B23D17B685B68FA7B012101FA02F28C
:1017100092B2D24313403978FA7B01FA02F292B2C4
:101720001A437B685A607B689A68FB7B5B000321E5
:1017300001FA03F3DB431340397FFA7B520001FACD
:1017400002F21A437B689A6000E000BFFB7B013322
:10175000FB73FB7B0F2B94D900BF1037BD4680BDB8
:101760004400002080B485B000AF78603960002369
:10177000FB817B681B88FB817B68284A934213D0DE
:101780007B68274A93420FD07B68B3F1804F0BD020
:101790007B68244A934207D07B68234A934203D054
:1017A0007B68224A934208D1FB8923F07003FB81B6
:1017B0003B685A88FB891343FB817B681C4A934230
:1017C0000CD07B681B4A934208D0FB8923F44073FA
:1017D000FB813B681A89FB891343FB817B68FA898B
:1017E0001A803B685A687B68DA623B681A887B68B3
:1017F0001A857B68094A934203D07B68084A934262
:1018000004D13B689B7A9AB27B681A867B68012276
:101810009A8200BF1437BD4680BC7047000001406B
:10182000000401400004004000080040000C00409B
:10183000001000400014004080B483B000AF786016
:1018400039607B683A685A6200BF0C37BD4680BC7D
:10185000704700BF80B483B000AF78607B685B6A7C
:1018600018460C37BD4680BC704700BF80B483B0BB
:1018700000AF78600B46FB70FB78002B08D07B68CC
:101880001B889BB243F001039AB27B681A8007E081
:101890007B681B889BB223F001039AB27B681A8095
:1018A00000BF0C37BD4680BC704700BF80F00040D1
:1018B00002E000BF81F0004142001FBF5FEA410328
:1018C00092EA030F7FEA226C7FEA236C6AD04FEA28
:1018D0001262D2EB1363C1BFD2184140484041406D
:1018E000B8BF5B42192B88BF704710F0004F40F41F
:1018F000000020F07F4018BF404211F0004F41F43B
:10190000000121F07F4118BF494292EA030F3FD006
:10191000A2F1010241FA03FC10EB0C00C3F1200319
:1019200001FA03F100F0004302D5494260EB4000A8
:10193000B0F5000F13D3B0F1807F06D340084FEA13
:10194000310102F10102FE2A51D2B1F1004F40EB08
:10195000C25008BF20F0010040EA03007047490070
:1019600040EB000010F4000FA2F10102EDD1B0FA3B
:1019700080FCACF1080CB2EB0C0200FA0CF0AABF30
:1019800000EBC25052421843BCBFD04018437047CE
:1019900092F0000F81F4000106BF80F400000132D4
:1019A000013BB5E74FEA41037FEA226C18BF7FEAAB
:1019B000236C21D092EA030F04D092F0000F08BFED
:1019C0000846704790EA010F1CBF0020704712F0D4
:1019D0007F4F04D1400028BF40F00040704712F113
:1019E00000723CBF00F50000704700F0004343F078
:1019F000FE4040F4000070477FEA226216BF0846AE
:101A00007FEA23630146420206BF5FEA412390EA70
:101A1000010F40F4800070474FF0000304E000BF66
:101A200010F0004348BF40425FEA000C08BF704717
:101A300043F0964301464FF000001CE050EA0102DB
:101A400008BF70474FF000030AE000BF50EA0102F0
:101A500008BF704711F0004302D5404261EB4101DD
:101A60005FEA010C02BF84460146002043F0B64302
:101A700008BFA3F18053A3F50003BCFA8CF2083A27
:101A8000A3EBC25310DB01FA02FC634400FA02FC30
:101A9000C2F12002BCF1004F20FA02F243EB020037
:101AA00008BF20F00100704702F1200201FA02FC99
:101AB000C2F1200250EA4C0021FA02F243EB02008C
:101AC00008BF20EADC7070474FF0FF3C06E000BF23
:101AD0004FF0010C02E000BF4FF0010C4DF804CDB7
:101AE0004FEA40024FEA41037FEA226C18BF7FEAC7
:101AF000236C11D001B052EA530C18BF90EA010FC9
:101B000058BFB2EB030088BFC81738BF6FEAE17057
:101B100018BF40F0010070477FEA226C02D15FEAF3
:101B2000402C05D17FEA236CE4D15FEA412CE1D05F
:101B30005DF8040B704700BF844608466146FFE726
:101B40000FB5FFF7C9FF002848BF10F1000F0FBD08
:101B50004DF808EDFFF7F4FF0CBF012000205DF801
:101B600008FB00BF4DF808EDFFF7EAFF34BF012086
:101B700000205DF808FB00BF4DF808EDFFF7E0FF1F
:101B800094BF012000205DF808FB00BF4DF808ED70
:101B9000FFF7D2FF94BF012000205DF808FB00BFD3
:101BA0004DF808EDFFF7C8FF34BF012000205DF8B5
:101BB00008FB00BF0040145450726F6A656B7420BC
:101BC000537461636A690000506F676F646F776573
:101BD0006A2050544D00000057696C676F746E6F37
:101BE00073633A0054656D70657261747572613A21
:101BF000000000005A6163686D75727A656E6965F0
:101C00003A0000004E6F6300506F63686D75726E2E
:0F1C100069650000536C6F6E65637A6E696500DD
:101C1F00007A030A00000000000000000102030424
:041C2F000607080993
:0400000508000000EF
:00000001FF
